:100000000C942A000C9447000C9447000C94470071
:100010000C9447000C9447000C9447000C94470044
:100020000C9447000C9447000C9447000C94470034
:100030000C9447000C9447000C9447000C94470024
:100040000C9447000C9447000C9447000C94470014
:100050000C94470011241FBECFE5D8E0DEBFCDBF12
:1000600010E0A0E6B0E0E8EFF9E002C005900D92E4
:10007000A03DB107D9F720E0A0EDB0E001C01D928E
:10008000A13DB207E1F70E94AE010C94FA040C9472
:10009000000011B880E280B984E086BF089583B97A
:1000A00084E886BF06B607FEFDCF089584EA86BFC2
:1000B00006B607FEFDCF089584E986BF08950F9325
:1000C0001F93CF93DF93D82FD07FD62B0D2F0860AF
:1000D00020E1829FC0011124C62FC82B1C2F18605D
:1000E0000E94560080E40E944F008D2F8C600E9479
:1000F0004F0082E08A95F1F700C0802F8B7F0E942D
:100100004F008C2F8C600E944F0022E02A95F1F75F
:1001100000C0812F8B7F0E944F000E945C00DF9106
:10012000CF911F910F9108952FEF80E792E021501A
:1001300080409040E1F700C0000060E082E00E9453
:100140005F0060E088E20E945F0060E08CE00E9457
:100150005F0060E081E00E945F008FE097E201971E
:10016000F1F700C000000895CF93DF93EC0104C0C5
:10017000219661E00E945F0088818111F9CFDF91B3
:10018000CF910895CF93DF9300D000D01F92CDB7C9
:10019000DEB7FE01319685E0DF011D928A95E9F711
:1001A00081B3846081BB82B38B7F82BB8FE99CE883
:1001B0000197F1F700C0000082B3846082BB81B375
:1001C0008B7F81BB90E59A95F1F788EC829B02C00A
:1001D0008150E1F7882309F444C088EC829904C077
:1001E0008150E1F788EC01C088EC829B2FC08150E0
:1001F000E1F760E02CC088EC829902C08150E1F701
:10020000ADE5AA95F1F70000829B14C047E050E0ED
:10021000491B510921E030E002C0220F331F4A95EB
:10022000E2F7E1E0F0E0EC0FFD1FE60FF11D808149
:10023000282B208388EC829B02C08150E1F79F5FCE
:1002400001C090E09830B8F26F5F01C060E06530A7
:10025000C0F38981882329F0809361008B8180938A
:1002600062000F900F900F900F900F90DF91CF9141
:1002700008950F931F93CF93DF93CDB7DEB76497A5
:100280000FB6F894DEBF0FBECDBF80916000853001
:1002900008F440C00E94C20060E080E80E945F0055
:1002A000809161001F928F93809162001F928F93C3
:1002B0008BE690E09F938F938E010F5F1F4F1F93EC
:1002C0000F930E941002C8010E94B40060E080EC0D
:1002D0000E945F00E091D000F0E0EE0FFF1FED59AB
:1002E000FF4F808191810E94B4008091D00090E006
:1002F0000196837090780FB6F894DEBF0FBECDBF25
:10030000992324F401978C6F9F6F01968093D000FE
:1003100010926000809160008F5F8093600064960F
:100320000FB6F894DEBF0FBECDBFDF91CF911F9106
:100330000F9108959DEC899F912D11249695969586
:10034000969540E1949F90011124990F392F330F16
:10035000330F930F891B822B8BBB089580E884BFDA
:1003600084BF8FEF8ABB87BB81B38B7F81BB0E9429
:1003700049000E94940060E080E80E945F008BE7E3
:1003800090E00E94B4002FEF84E39CE02150804075
:100390009040E1F700C000008CE088BBC8E2D0E0EC
:1003A0000FC08C2F0E949A010E9439012FEF88EF15
:1003B00095E1215080409040E1F700C00000219776
:1003C000C430D10574F78AE088BBC3E0D0E00FC029
:1003D0008C2F0E949A010E9439012FEF88EF95E13E
:1003E000215080409040E1F700C000002197DD23BC
:1003F0007CF781E288BBC8E2D0E00FC08C2F0E945E
:100400009A010E9439012FEF88EF95E12150804039
:100410009040E1F700C000002197DD237CF7BCCFBE
:10042000AEE0B0E0E6E1F2E00C94D1040D891E8963
:1004300086E08C831A8309838FEF9FE79E838D83E9
:10044000AE01475E5F4F6F89788DCE0101960E94A5
:100450003202EF81F885E00FF11F10822E96E4E062
:100460000C94ED04ABE0B0E0E8E3F2E00C94C304DC
:100470006C017B018A01FC0117821682838181FF56
:10048000CCC1CE0101963C01F6019381F70193FDA9
:10049000859193FF81917F01882309F4BAC1853248
:1004A00039F493FD859193FF81917F01853229F481
:1004B000B60190E00E942904E7CF912C212C312C29
:1004C000FFE1F315D8F08B3279F038F4803279F00F
:1004D0008332A1F4232D20611DC08D3261F0803361
:1004E00069F4232D216016C0832D8260382EE32D00
:1004F000E4603E2E2AC0F32DF8601DC037FC2DC0ED
:1005000020ED280F2A3040F08E32B9F436FC81C13C
:10051000232D2064322E19C036FE06C08AE0989E34
:10052000200D1124922E11C0EAE02E9E200D1124E0
:10053000222EF32DF0623F2E08C08C3621F4832D3D
:100540008068382E02C0883641F4F70193FD85910A
:1005500093FF81917F018111B3CF982F9F7D955497
:10056000933028F40C5F1F4F9FE399830DC08336AF
:1005700031F0833771F0833509F059C021C0F8019B
:10058000808189830E5F1F4F88248394912C5301AF
:1005900013C02801F2E04F0E511CF801A080B18079
:1005A00036FE03C0692D70E002C06FEF7FEFC5011A
:1005B0000E941E044C018201F32DFF773F2E16C0CE
:1005C000280122E0420E511CF801A080B18036FEC5
:1005D00003C0692D70E002C06FEF7FEFC5010E947C
:1005E00013044C01F32DF0683F2E820133FC1BC035
:1005F000822D90E088169906B0F4B60180E290E072
:100600000E9429042A94F4CFF50137FC859137FE26
:1006100081915F01B60190E00E94290421102A9483
:1006200021E0821A91088114910471F7E8C08436A0
:1006300011F0893641F5F80137FE07C060817181FC
:10064000828193810C5F1F4F08C060817181072EEA
:10065000000C880B990B0E5F1F4FF32DFF763F2E7A
:1006600097FF09C090958095709561957F4F8F4F4A
:100670009F4FF0683F2E2AE030E0A3010E946504FE
:10068000882E861845C0853731F4232D2F7EB22E53
:100690002AE030E025C0932D997FB92E8F36C1F026
:1006A00018F4883579F0B5C0803719F0883721F013
:1006B000B0C0E92FE061BE2EB4FE0DC0FB2DF4608A
:1006C000BF2E09C034FE0AC0292F2660B22E06C0F4
:1006D00028E030E005C020E130E002C020E132E057
:1006E000F801B7FE07C060817181828193810C5F40
:1006F0001F4F06C06081718180E090E00E5F1F4F48
:10070000A3010E946504882E8618FB2DFF773F2EDB
:1007100036FE0DC0232D2E7FA22E891458F434FEF0
:100720000BC032FC09C0832D8E7EA82E05C0B82CCC
:10073000A32C03C0B82C01C0B92CA4FE0FC0FE012D
:10074000E80DF11D8081803321F49A2D997EA92E28
:1007500009C0A2FE06C0B394B39404C08A2D867863
:1007600009F0B394A3FC11C0A0FE06C0B21488F433
:10077000280C922C9B180EC0B21460F4B60180E2D3
:1007800090E00E942904B394F7CFB21418F42B1808
:1007900002C0982C212CA4FE10C0B60180E390E08A
:1007A0000E942904A2FE17C0A1FC03C088E790E0C4
:1007B00002C088E590E0B6010CC08A2D867859F019
:1007C000A1FE02C08BE201C080E2A7FC8DE2B6016F
:1007D00090E00E942904891438F4B60180E390E087
:1007E0000E9429049A94F7CF8A94F301E80DF11D31
:1007F0008081B60190E00E9429048110F5CF22206B
:1008000009F442CEB60180E290E00E9429042A94C5
:10081000F6CFF6018681978102C08FEF9FEF2B966E
:10082000E2E10C94DF04FC0105906150704001107E
:10083000D8F7809590958E0F9F1F0895FC01615009
:10084000704001900110D8F7809590958E0F9F1FF2
:1008500008950F931F93CF93DF93FB01238121FD15
:1008600003C08FEF9FEF2CC022FF16C04681578137
:10087000248135814217530744F4A081B1819D0141
:100880002F5F3F4F318320838C93268137812F5FE9
:100890003F4F3783268314C08B01EC01FB0100849A
:1008A000F185E02D0995892BE1F6D80116968D91F9
:1008B0009C911797019617969C938E931697CE014D
:1008C000DF91CF911F910F910895FA01AA27283047
:1008D00051F1203181F1E8946F936E7F6E5F7F4F0D
:1008E0008F4F9F4FAF4FB1E03ED0B4E03CD0670F89
:1008F000781F891F9A1FA11D680F791F8A1F911DDC
:10090000A11D6A0F711D811D911DA11D20D009F42B
:1009100068943F912AE0269F11243019305D31936D
:10092000DEF6CF010895462F4770405D4193B3E056
:100930000FD0C9F7F6CF462F4F70405D4A3318F0FD
:10094000495D31FD4052419302D0A9F7EACFB4E0AE
:10095000A6959795879577956795BA95C9F7009766
:100960006105710508959B01AC010A2E0694579507
:10097000479537952795BA95C9F7620F731F841F5E
:10098000951FA01D08952F923F924F925F926F92F4
:100990007F928F929F92AF92BF92CF92DF92EF920F
:1009A000FF920F931F93CF93DF93CDB7DEB7CA1B90
:1009B000DB0B0FB6F894DEBF0FBECDBF09942A88BB
:1009C000398848885F846E847D848C849B84AA8463
:1009D000B984C884DF80EE80FD800C811B81AA81F0
:1009E000B981CE0FD11D0FB6F894DEBF0FBECDBFBB
:0809F000ED010895F894FFCF1A
:1009F8000532198B009C00AD00BE00543A257543A2
:100A08002020483A25752525202000496E697469FB
:100A1800616C697A696E672E2E2E00466F63757356
:100A2800206F6E20726F6164202020004E6F20506E
:100A3800686F6E652044726976696E6700537461E9
:100A48007920696E204C616E652020202000466167
:100A58007374656E205365617462656C7420000060
:00000001FF
